:03000000020003F8
:0C000300787FE4F6D8FD75811A02004AEF
:04010F0078797A0081
:1000ED00100800FFF789000000000000000000006C
:0200FD00000001
:1000DA00438920758DFA858D8BD28E759850D2AF53
:0300EA00D2AC2273
:10008F008B188A19891AAB18AA19A91A1200C1FF5D
:10009F00EF601EAB18AA19A91A1200C1FF8F993071
:1000AF0099FDC2997401251AF51AE43519F51980CD
:0200BF00D52248
:0F0100001200DA7BFF7A01790F12008F80FE2246
:10000F00020100E493A3F8E493A34003F68001F206
:10001F0008DFF48029E493A3F85407240CC8C333F2
:10002F00C4540F4420C8834004F456800146F6DFC1
:10003F00E4800B01020408102040809000EDE47E64
:10004F00019360BCA3FF543F30E509541FFEE493B6
:10005F00A360010ECF54C025E060A840B8E493A37D
:10006F00FAE493A3F8E493A3C8C582C8CAC583CAA8
:10007F00F0A3C8C582C8CAC583CADFE9DEE780BE60
:0100FF000000
:1000C100BB010689828A83E0225002E722BBFE023D
:0900D100E32289828A83E4932270
:00000001FF
